{
  "_format": "hh-sol-artifact-1",
  "contractName": "CapsuleSwap",
  "sourceName": "contracts/CapsuleSwap.sol",
  "abi": [
    {
      "inputs": [
        {
          "internalType": "address",
          "name": "_capsuleContract",
          "type": "address"
        },
        {
          "internalType": "address",
          "name": "_signer",
          "type": "address"
        },
        {
          "internalType": "address",
          "name": "_treasury",
          "type": "address"
        }
      ],
      "stateMutability": "nonpayable",
      "type": "constructor"
    },
    {
      "anonymous": false,
      "inputs": [
        {
          "indexed": false,
          "internalType": "uint256",
          "name": "newPercentage",
          "type": "uint256"
        }
      ],
      "name": "PercentageUpdated",
      "type": "event"
    },
    {
      "anonymous": false,
      "inputs": [
        {
          "indexed": false,
          "internalType": "address",
          "name": "newSigner",
          "type": "address"
        }
      ],
      "name": "SignerUpdated",
      "type": "event"
    },
    {
      "anonymous": false,
      "inputs": [
        {
          "indexed": true,
          "internalType": "address",
          "name": "user",
          "type": "address"
        },
        {
          "indexed": true,
          "internalType": "uint256",
          "name": "tokenId",
          "type": "uint256"
        },
        {
          "indexed": false,
          "internalType": "uint256",
          "name": "amount",
          "type": "uint256"
        }
      ],
      "name": "Swapped",
      "type": "event"
    },
    {
      "anonymous": false,
      "inputs": [
        {
          "indexed": false,
          "internalType": "address",
          "name": "newTreasury",
          "type": "address"
        }
      ],
      "name": "TreasuryUpdated",
      "type": "event"
    },
    {
      "inputs": [],
      "name": "capsuleContract",
      "outputs": [
        {
          "internalType": "contract IERC721",
          "name": "",
          "type": "address"
        }
      ],
      "stateMutability": "view",
      "type": "function"
    },
    {
      "inputs": [],
      "name": "maintenanceMode",
      "outputs": [
        {
          "internalType": "bool",
          "name": "",
          "type": "bool"
        }
      ],
      "stateMutability": "view",
      "type": "function"
    },
    {
      "inputs": [],
      "name": "owner",
      "outputs": [
        {
          "internalType": "address",
          "name": "",
          "type": "address"
        }
      ],
      "stateMutability": "view",
      "type": "function"
    },
    {
      "inputs": [
        {
          "internalType": "address",
          "name": "recipient",
          "type": "address"
        },
        {
          "internalType": "uint256",
          "name": "amount",
          "type": "uint256"
        },
        {
          "internalType": "uint256",
          "name": "tokenId",
          "type": "uint256"
        }
      ],
      "name": "payoutDirect",
      "outputs": [],
      "stateMutability": "nonpayable",
      "type": "function"
    },
    {
      "inputs": [],
      "name": "payoutPercentage",
      "outputs": [
        {
          "internalType": "uint256",
          "name": "",
          "type": "uint256"
        }
      ],
      "stateMutability": "view",
      "type": "function"
    },
    {
      "inputs": [
        {
          "internalType": "uint256",
          "name": "",
          "type": "uint256"
        }
      ],
      "name": "processedCapsules",
      "outputs": [
        {
          "internalType": "bool",
          "name": "",
          "type": "bool"
        }
      ],
      "stateMutability": "view",
      "type": "function"
    },
    {
      "inputs": [
        {
          "internalType": "bool",
          "name": "_maintenance",
          "type": "bool"
        }
      ],
      "name": "setMaintenance",
      "outputs": [],
      "stateMutability": "nonpayable",
      "type": "function"
    },
    {
      "inputs": [
        {
          "internalType": "uint256",
          "name": "_percentage",
          "type": "uint256"
        }
      ],
      "name": "setPercentage",
      "outputs": [],
      "stateMutability": "nonpayable",
      "type": "function"
    },
    {
      "inputs": [
        {
          "internalType": "address",
          "name": "_signer",
          "type": "address"
        }
      ],
      "name": "setSigner",
      "outputs": [],
      "stateMutability": "nonpayable",
      "type": "function"
    },
    {
      "inputs": [
        {
          "internalType": "address",
          "name": "_treasury",
          "type": "address"
        }
      ],
      "name": "setTreasury",
      "outputs": [],
      "stateMutability": "nonpayable",
      "type": "function"
    },
    {
      "inputs": [],
      "name": "signer",
      "outputs": [
        {
          "internalType": "address",
          "name": "",
          "type": "address"
        }
      ],
      "stateMutability": "view",
      "type": "function"
    },
    {
      "inputs": [
        {
          "internalType": "uint256",
          "name": "tokenId",
          "type": "uint256"
        },
        {
          "internalType": "uint256",
          "name": "amount",
          "type": "uint256"
        },
        {
          "internalType": "uint256",
          "name": "nonce",
          "type": "uint256"
        },
        {
          "internalType": "uint256",
          "name": "deadline",
          "type": "uint256"
        },
        {
          "internalType": "bytes",
          "name": "signature",
          "type": "bytes"
        }
      ],
      "name": "swap",
      "outputs": [],
      "stateMutability": "nonpayable",
      "type": "function"
    },
    {
      "inputs": [],
      "name": "treasury",
      "outputs": [
        {
          "internalType": "address",
          "name": "",
          "type": "address"
        }
      ],
      "stateMutability": "view",
      "type": "function"
    },
    {
      "inputs": [
        {
          "internalType": "uint256",
          "name": "",
          "type": "uint256"
        }
      ],
      "name": "usedNonces",
      "outputs": [
        {
          "internalType": "bool",
          "name": "",
          "type": "bool"
        }
      ],
      "stateMutability": "view",
      "type": "function"
    },
    {
      "inputs": [],
      "name": "withdraw",
      "outputs": [],
      "stateMutability": "nonpayable",
      "type": "function"
    },
    {
      "stateMutability": "payable",
      "type": "receive"
    }
  ],
  "bytecode": "0x608060405260196004556000600560006101000a81548160ff0219169083151502179055503480156200003157600080fd5b5060405162001ca238038062001ca28339818101604052810190620000579190620001cd565b336000806101000a81548173ffffffffffffffffffffffffffffffffffffffff021916908373ffffffffffffffffffffffffffffffffffffffff16021790555082600360006101000a81548173ffffffffffffffffffffffffffffffffffffffff021916908373ffffffffffffffffffffffffffffffffffffffff16021790555081600160006101000a81548173ffffffffffffffffffffffffffffffffffffffff021916908373ffffffffffffffffffffffffffffffffffffffff16021790555080600260006101000a81548173ffffffffffffffffffffffffffffffffffffffff021916908373ffffffffffffffffffffffffffffffffffffffff16021790555050505062000229565b600080fd5b600073ffffffffffffffffffffffffffffffffffffffff82169050919050565b6000620001958262000168565b9050919050565b620001a78162000188565b8114620001b357600080fd5b50565b600081519050620001c7816200019c565b92915050565b600080600060608486031215620001e957620001e862000163565b5b6000620001f986828701620001b6565b93505060206200020c86828701620001b6565b92505060406200021f86828701620001b6565b9150509250925092565b611a6980620002396000396000f3fe6080604052600436106100ec5760003560e01c8063612f2f371161008a5780638da5cb5b116100595780638da5cb5b146102d9578063bf1c7b4f14610304578063e600a2ed1461032f578063f0f4426014610358576100f3565b8063612f2f371461021f57806361d027b3146102485780636717e41c146102735780636c19e783146102b0576100f3565b8063290ee5c9116100c6578063290ee5c9146101775780633ccfd60b146101a257806350dc9f37146101b95780635da4a1d3146101f6576100f3565b806308f82c1a146100f8578063238ac9331461012157806325dce0a61461014c576100f3565b366100f357005b600080fd5b34801561010457600080fd5b5061011f600480360381019061011a91906110e6565b610381565b005b34801561012d57600080fd5b50610136610739565b60405161014391906111c1565b60405180910390f35b34801561015857600080fd5b5061016161075f565b60405161016e91906111f7565b60405180910390f35b34801561018357600080fd5b5061018c610772565b6040516101999190611221565b60405180910390f35b3480156101ae57600080fd5b506101b7610778565b005b3480156101c557600080fd5b506101e060048036038101906101db919061123c565b61086f565b6040516101ed91906111f7565b60405180910390f35b34801561020257600080fd5b5061021d6004803603810190610218919061123c565b61088f565b005b34801561022b57600080fd5b5061024660048036038101906102419190611295565b61095e565b005b34801561025457600080fd5b5061025d610a09565b60405161026a91906111c1565b60405180910390f35b34801561027f57600080fd5b5061029a6004803603810190610295919061123c565b610a2f565b6040516102a791906111f7565b60405180910390f35b3480156102bc57600080fd5b506102d760048036038101906102d291906112ee565b610a4f565b005b3480156102e557600080fd5b506102ee610b58565b6040516102fb91906111c1565b60405180910390f35b34801561031057600080fd5b50610319610b7c565b604051610326919061137a565b60405180910390f35b34801561033b57600080fd5b5061035660048036038101906103519190611395565b610ba2565b005b34801561036457600080fd5b5061037f600480360381019061037a91906112ee565b610d1d565b005b600560009054906101000a900460ff16156103d1576040517f08c379a00000000000000000000000000000000000000000000000000000000081526004016103c890611445565b60405180910390fd5b82421115610414576040517f08c379a000000000000000000000000000000000000000000000000000000000815260040161040b906114b1565b60405180910390fd5b6006600085815260200190815260200160002060009054906101000a900460ff1615610475576040517f08c379a000000000000000000000000000000000000000000000000000000000815260040161046c9061151d565b60405180910390fd5b6007600087815260200190815260200160002060009054906101000a900460ff16156104d6576040517f08c379a00000000000000000000000000000000000000000000000000000000081526004016104cd90611589565b60405180910390fd5b60008686338787306040516020016104f396959493929190611612565b60405160208183030381529060405280519060200120905060008160405160200161051e9190611704565b60405160208183030381529060405280519060200120905060006105868286868080601f016020809104026020016040519081016040528093929190818152602001838380828437600081840152601f19601f82011690508083019250505050505050610e26565b9050600160009054906101000a900473ffffffffffffffffffffffffffffffffffffffff1673ffffffffffffffffffffffffffffffffffffffff168173ffffffffffffffffffffffffffffffffffffffff1614610618576040517f08c379a000000000000000000000000000000000000000000000000000000000815260040161060f90611776565b60405180910390fd5b60016006600089815260200190815260200160002060006101000a81548160ff0219169083151502179055506001600760008b815260200190815260200160002060006101000a81548160ff021916908315150217905550600360009054906101000a900473ffffffffffffffffffffffffffffffffffffffff1673ffffffffffffffffffffffffffffffffffffffff166323b872dd33600260009054906101000a900473ffffffffffffffffffffffffffffffffffffffff168c6040518463ffffffff1660e01b81526004016106f193929190611796565b600060405180830381600087803b15801561070b57600080fd5b505af115801561071f573d6000803e3d6000fd5b5050505061072e33898b610e95565b505050505050505050565b600160009054906101000a900473ffffffffffffffffffffffffffffffffffffffff1681565b600560009054906101000a900460ff1681565b60045481565b60008054906101000a900473ffffffffffffffffffffffffffffffffffffffff1673ffffffffffffffffffffffffffffffffffffffff163373ffffffffffffffffffffffffffffffffffffffff1614610806576040517f08c379a00000000000000000000000000000000000000000000000000000000081526004016107fd90611819565b60405180910390fd5b60008054906101000a900473ffffffffffffffffffffffffffffffffffffffff1673ffffffffffffffffffffffffffffffffffffffff166108fc479081150290604051600060405180830381858888f1935050505015801561086c573d6000803e3d6000fd5b50565b60076020528060005260406000206000915054906101000a900460ff1681565b60008054906101000a900473ffffffffffffffffffffffffffffffffffffffff1673ffffffffffffffffffffffffffffffffffffffff163373ffffffffffffffffffffffffffffffffffffffff161461091d576040517f08c379a000000000000000000000000000000000000000000000000000000000815260040161091490611819565b60405180910390fd5b806004819055507f5f941ffb2f12e47cccb8f61f9c96fc3dbfbaf686cdc51aa33d0ed22efbb9ad9c816040516109539190611221565b60405180910390a150565b60008054906101000a900473ffffffffffffffffffffffffffffffffffffffff1673ffffffffffffffffffffffffffffffffffffffff163373ffffffffffffffffffffffffffffffffffffffff16146109ec576040517f08c379a00000000000000000000000000000000000000000000000000000000081526004016109e390611819565b60405180910390fd5b80600560006101000a81548160ff02191690831515021790555050565b600260009054906101000a900473ffffffffffffffffffffffffffffffffffffffff1681565b60066020528060005260406000206000915054906101000a900460ff1681565b60008054906101000a900473ffffffffffffffffffffffffffffffffffffffff1673ffffffffffffffffffffffffffffffffffffffff163373ffffffffffffffffffffffffffffffffffffffff1614610add576040517f08c379a0000000000000000000000000000000000000000000000000000000008152600401610ad490611819565b60405180910390fd5b80600160006101000a81548173ffffffffffffffffffffffffffffffffffffffff021916908373ffffffffffffffffffffffffffffffffffffffff1602179055507f5553331329228fbd4123164423717a4a7539f6dfa1c3279a923b98fd681a6c7381604051610b4d91906111c1565b60405180910390a150565b60008054906101000a900473ffffffffffffffffffffffffffffffffffffffff1681565b600360009054906101000a900473ffffffffffffffffffffffffffffffffffffffff1681565b60008054906101000a900473ffffffffffffffffffffffffffffffffffffffff1673ffffffffffffffffffffffffffffffffffffffff163373ffffffffffffffffffffffffffffffffffffffff1614610c30576040517f08c379a0000000000000000000000000000000000000000000000000000000008152600401610c2790611819565b60405180910390fd5b600560009054906101000a900460ff1615610c80576040517f08c379a0000000000000000000000000000000000000000000000000000000008152600401610c7790611445565b60405180910390fd5b6007600082815260200190815260200160002060009054906101000a900460ff1615610ce1576040517f08c379a0000000000000000000000000000000000000000000000000000000008152600401610cd890611589565b60405180910390fd5b60016007600083815260200190815260200160002060006101000a81548160ff021916908315150217905550610d18838383610e95565b505050565b60008054906101000a900473ffffffffffffffffffffffffffffffffffffffff1673ffffffffffffffffffffffffffffffffffffffff163373ffffffffffffffffffffffffffffffffffffffff1614610dab576040517f08c379a0000000000000000000000000000000000000000000000000000000008152600401610da290611819565b60405180910390fd5b80600260006101000a81548173ffffffffffffffffffffffffffffffffffffffff021916908373ffffffffffffffffffffffffffffffffffffffff1602179055507f7dae230f18360d76a040c81f050aa14eb9d6dc7901b20fc5d855e2a20fe814d181604051610e1b91906111c1565b60405180910390a150565b600080600080610e3585610fd9565b92509250925060018682858560405160008152602001604052604051610e5e9493929190611864565b6020604051602081039080840390855afa158015610e80573d6000803e3d6000fd5b50505060206040510351935050505092915050565b81471015610ed8576040517f08c379a0000000000000000000000000000000000000000000000000000000008152600401610ecf906118f5565b60405180910390fd5b60008373ffffffffffffffffffffffffffffffffffffffff1683604051610efe90611946565b60006040518083038185875af1925050503d8060008114610f3b576040519150601f19603f3d011682016040523d82523d6000602084013e610f40565b606091505b5050905080610f84576040517f08c379a0000000000000000000000000000000000000000000000000000000008152600401610f7b906119a7565b60405180910390fd5b818473ffffffffffffffffffffffffffffffffffffffff167f3a9a9f34f5831e9c8ecb66ab3aa308b2ff31eaca434615f6c9cadc656a9af71c85604051610fcb9190611221565b60405180910390a350505050565b60008060006041845114611022576040517f08c379a000000000000000000000000000000000000000000000000000000000815260040161101990611a13565b60405180910390fd5b6020840151925060408401519150606084015160001a90509193909250565b600080fd5b600080fd5b6000819050919050565b61105e8161104b565b811461106957600080fd5b50565b60008135905061107b81611055565b92915050565b600080fd5b600080fd5b600080fd5b60008083601f8401126110a6576110a5611081565b5b8235905067ffffffffffffffff8111156110c3576110c2611086565b5b6020830191508360018202830111156110df576110de61108b565b5b9250929050565b60008060008060008060a0878903121561110357611102611041565b5b600061111189828a0161106c565b965050602061112289828a0161106c565b955050604061113389828a0161106c565b945050606061114489828a0161106c565b935050608087013567ffffffffffffffff81111561116557611164611046565b5b61117189828a01611090565b92509250509295509295509295565b600073ffffffffffffffffffffffffffffffffffffffff82169050919050565b60006111ab82611180565b9050919050565b6111bb816111a0565b82525050565b60006020820190506111d660008301846111b2565b92915050565b60008115159050919050565b6111f1816111dc565b82525050565b600060208201905061120c60008301846111e8565b92915050565b61121b8161104b565b82525050565b60006020820190506112366000830184611212565b92915050565b60006020828403121561125257611251611041565b5b60006112608482850161106c565b91505092915050565b611272816111dc565b811461127d57600080fd5b50565b60008135905061128f81611269565b92915050565b6000602082840312156112ab576112aa611041565b5b60006112b984828501611280565b91505092915050565b6112cb816111a0565b81146112d657600080fd5b50565b6000813590506112e8816112c2565b92915050565b60006020828403121561130457611303611041565b5b6000611312848285016112d9565b91505092915050565b6000819050919050565b600061134061133b61133684611180565b61131b565b611180565b9050919050565b600061135282611325565b9050919050565b600061136482611347565b9050919050565b61137481611359565b82525050565b600060208201905061138f600083018461136b565b92915050565b6000806000606084860312156113ae576113ad611041565b5b60006113bc868287016112d9565b93505060206113cd8682870161106c565b92505060406113de8682870161106c565b9150509250925092565b600082825260208201905092915050565b7f4d61696e74656e616e6365206d6f646500000000000000000000000000000000600082015250565b600061142f6010836113e8565b915061143a826113f9565b602082019050919050565b6000602082019050818103600083015261145e81611422565b9050919050565b7f4578706972656400000000000000000000000000000000000000000000000000600082015250565b600061149b6007836113e8565b91506114a682611465565b602082019050919050565b600060208201905081810360008301526114ca8161148e565b9050919050565b7f4e6f6e6365207573656400000000000000000000000000000000000000000000600082015250565b6000611507600a836113e8565b9150611512826114d1565b602082019050919050565b60006020820190508181036000830152611536816114fa565b9050919050565b7f43617073756c6520616c72656164792070726f63657373656400000000000000600082015250565b60006115736019836113e8565b915061157e8261153d565b602082019050919050565b600060208201905081810360008301526115a281611566565b9050919050565b6000819050919050565b6115c46115bf8261104b565b6115a9565b82525050565b60008160601b9050919050565b60006115e2826115ca565b9050919050565b60006115f4826115d7565b9050919050565b61160c611607826111a0565b6115e9565b82525050565b600061161e82896115b3565b60208201915061162e82886115b3565b60208201915061163e82876115fb565b60148201915061164e82866115b3565b60208201915061165e82856115b3565b60208201915061166e82846115fb565b601482019150819050979650505050505050565b600081905092915050565b7f19457468657265756d205369676e6564204d6573736167653a0a333200000000600082015250565b60006116c3601c83611682565b91506116ce8261168d565b601c82019050919050565b6000819050919050565b6000819050919050565b6116fe6116f9826116d9565b6116e3565b82525050565b600061170f826116b6565b915061171b82846116ed565b60208201915081905092915050565b7f496e76616c6964207369676e6174757265000000000000000000000000000000600082015250565b60006117606011836113e8565b915061176b8261172a565b602082019050919050565b6000602082019050818103600083015261178f81611753565b9050919050565b60006060820190506117ab60008301866111b2565b6117b860208301856111b2565b6117c56040830184611212565b949350505050565b7f4e6f74206f776e65720000000000000000000000000000000000000000000000600082015250565b60006118036009836113e8565b915061180e826117cd565b602082019050919050565b60006020820190508181036000830152611832816117f6565b9050919050565b611842816116d9565b82525050565b600060ff82169050919050565b61185e81611848565b82525050565b60006080820190506118796000830187611839565b6118866020830186611855565b6118936040830185611839565b6118a06060830184611839565b95945050505050565b7f496e73756666696369656e74206c697175696469747900000000000000000000600082015250565b60006118df6016836113e8565b91506118ea826118a9565b602082019050919050565b6000602082019050818103600083015261190e816118d2565b9050919050565b600081905092915050565b50565b6000611930600083611915565b915061193b82611920565b600082019050919050565b600061195182611923565b9150819050919050565b7f4661696c656420746f2073656e6420444752414d000000000000000000000000600082015250565b60006119916014836113e8565b915061199c8261195b565b602082019050919050565b600060208201905081810360008301526119c081611984565b9050919050565b7f496e76616c6964207369676e6174757265206c656e6774680000000000000000600082015250565b60006119fd6018836113e8565b9150611a08826119c7565b602082019050919050565b60006020820190508181036000830152611a2c816119f0565b905091905056fea2646970667358221220d1f1d13f030aec153d54da245dc2a582be113e3a81227eec6b76d059bd54975864736f6c63430008130033",
  "linkReferences": {},
  "deployedLinkReferences": {}
}